:1000000064C000008AC0000088C0000086C00000F4
:1000100084C0000082C0000080C000007EC00000DC
:100020007CC000007AC0000078C0000076C00000EC
:1000300074C0000072C0000070C000006EC00000FC
:100040000C94E7086AC000000C94310A0C940C0A66
:1000500064C0000062C0000060C000005EC000001C
:100060005CC000005AC0000000000008000201004F
:100070000003040700000000000000000000000072
:10008000250028002B0000000000240027002A0083
:10009000040404040404040402020202020203032E
:1000A0000303030301020408102040800102040836
:1000B00010200102040810207C3C3E5E2B3D3F2FA7
:1000C0005B5D3B2C2A225C001A1111241FBECFEF6E
:1000D000D8E0DEBFCDBF11E0A0E0B1E0EEEBF5E28D
:1000E00002C005900D92A23CB107D9F724E0A2EC22
:1000F000B1E001C01D92AC3DB207E1F710E0C5E6EA
:10010000D0E004C02197FE010E947B11C436D107C4
:10011000C9F70E94750E0C94DD1272CFDC0159965E
:10012000ED91FC915A973097B9F083899489A5890C
:10013000B6894285538564857585841B950BA60B0E
:10014000B70B811520E89207A105B10538F08FEFB4
:100150009FE7A0E0B0E0089580E090E00895CF939D
:10016000DF931F92CDB7DEB76983DC01ED91FC917F
:100170000280F381E02D41E050E0BE016F5F7F4FD0
:1001800009950F90DF91CF910895CF92DF92EF9272
:10019000FF920F931F93CF93DF936C017A018B0132
:1001A000C0E0D0E0CE15DF0589F0D8016D918D015A
:1001B000D601ED91FC910190F081E02DC6010995E9
:1001C000892B11F47E0102C02196ECCFC701DF918B
:1001D000CF911F910F91FF90EF90DF90CF900895F6
:1001E0000E94BD124F925F926F927F92AF92BF9228
:1001F000CF92DF92EF92FF920F931F93CF93DF93F3
:1002000000D000D0CDB7DEB78C0149835A836B8311
:100210007C835901C12CD12C7601412C82E0582ECF
:10022000612C712C49815A816B817C819E012F5FE9
:100230003F4FC8010E94B70C882351F1D301C2017E
:10024000F801058404C0880F991FAA1FBB1F0A94D8
:10025000D2F7C80ED91EEA1EFB1E49815A816B8156
:100260007C818789803129F088EF9FEFAFEFBFE075
:1002700004C088EF9FEFA0E0B0E0481759076A0775
:100280007B0780F2F501C082D182E282F38281E0B5
:100290000F900F900F900F90DF91CF911F910F91C2
:1002A000FF90EF90DF90CF90BF90AF907F906F90D6
:1002B0005F904F9008958F929F92AF92BF92CF928E
:1002C000DF92EF92FF920F931F93CF93DF93EC0196
:1002D0008D81811102C080E077C00B891C892D8936
:1002E0003E890417150726073707A8F36A017B0123
:1002F000823029F4CA86DB86EC86FD860DC0C114E7
:10030000D104E104F10451F41E821F82188619867B
:100310001A861B861C861D8681E056C08A849B84B3
:10032000AC84BD84EB8DFC8D258530E0275F3F4F8D
:10033000B501A4014150510961097109022E04C09F
:1003400076956795579547950A94D2F7D701C601D8
:100350000197A109B10904C0B695A795979587950E
:100360002A95D2F784179507A607B70720F08928A2
:100370008A288B2849F44F89588D698D7A8D4E8350
:100380005F836887798704C0841B950BA60BB70B26
:100390004C015D018E010A5F1F4F81149104A1047D
:1003A000B10409F4A7CF4E815F81688579859801F2
:1003B0008B8D9C8D0E94B70C91E0891A9108A10841
:1003C000B1088111EACF87CFDF91CF911F910F91B3
:1003D000FF90EF90DF90CF90BF90AF909F908F9065
:1003E00008953F924F925F926F927F928F929F9269
:1003F000AF92BF92CF92DF92EF92FF920F931F9333
:10040000CF93DF93CDB7DEB72C970FB6F894DEBF4E
:100410000FBECDBF5C01DC015B968D909C905C971C
:100420001696CD90DD90ED90FC901997C114D104F3
:10043000E104F10439F0BFEFCB1ADB0AEB0AFB0A47
:10044000312C07C0F401C080D180E280F3803324D6
:100450003394F40181859285A385B4859C01AD0117
:100460002F5F3F4F4F4F5F4F29873A874B875C87FE
:10047000260137011D821E821F821886F4018185A4
:100480009285A385B4852D813E814F81588528179B
:1004900039074A075B0708F063C089859A85AB85F1
:1004A000BC858C159D05AE05BF0550F482E0C82EB5
:1004B000D12CE12CF12C92E0492E512C612C712C85
:1004C0009E012F5F3F4FB701A601C4010E94B70CE8
:1004D000882309F445C089819A81AB81BC81892B2D
:1004E0008A2B8B2B41F0260137019FEF491A590ABD
:1004F000690A790A05C0C414D504E604F70491F02A
:100500002D813E814F8158852F5F3F4F4F4F5F4F69
:100510002D833E834F8358873FEFC31AD30AE30AE4
:10052000F30AACCF0FEF1FEF2FEF3FE0B301A201B3
:10053000C4010E94180C882399F0D50116964D919C
:100540005D916D917C91199741155105610571057A
:1005500049F093018201C4010E94180C811102C06C
:1005600080E02AC0D50116964D925D926D927C92E4
:100570001997332051F0D301C2010196A11DB11D7D
:10058000F40180839183A283B383F5018789908DE1
:10059000A18DB28D892B8A2B8B2B69F4D5015796AF
:1005A0004D925D926D927C925A9714968C9114970D
:1005B000806814968C9381E02C960FB6F894DEBF79
:1005C0000FBECDBFDF91CF911F910F91FF90EF90A4
:1005D000DF90CF90BF90AF909F908F907F906F9063
:1005E0005F904F903F9008958FB7F8948091CC0121
:1005F0008FBF089561E0FC0184810E94CC0B809143
:10060000CB0181111092CB0108958EBD00000DB475
:1006100007FEFDCF8EB508958FEFF7CFCF93DF9311
:10062000EC018E81882379F08F8198859C012F5F62
:100630003F4F38872F838230924010F4EDDFF4CFA4
:10064000CE01D8DF1E82DF91CF9108958CBD9DBD74
:100650000895CF93DF93EC018091CB01811108C005
:1006600081E08093CB018091D5039091D603EEDF9A
:1006700060E08C81DF91CF910C94CC0BFC01DB010D
:1006800012968D919C9113979383828380E191E0E0
:100690009183808314968C911497848315968C9102
:1006A0001597858316964D915D916D917C91199763
:1006B00046835783608771871A964D915D916D913E
:1006C0007C911D9742875387648775871E964D914D
:1006D0005D916D917C91519746875787608B718BA7
:1006E00052968C915297828B53964D915D916D915C
:1006F0007C915697438B548B658B768B57964D9197
:100700005D916D917C915A97478B508F618F728F5D
:100710005B968D919C915C97948F838F0895EF9257
:10072000FF920F931F93CF93DF93EC017B018A011C
:100730001B821A8288EE93E0A0E0B0E08C839D8358
:10074000AE83BF838EE291E0998388838DE190E050
:100750000E9490119A8F898F009779F02DE1F7010F
:10076000DC0101900D922A95E1F74CE050E0B801D0
:10077000CE010C960E94CE12188EDF91CF911F9160
:100780000F91FF90EF9008952FB7F8946091C701F3
:100790007091C8018091C9019091CA012FBF08953D
:1007A0000F931F93CF93DF93EB01EEDF8B0134DFC9
:1007B0008F3F41F0E9DF601B710B6C177D07B8F3C9
:1007C00080E001C081E0DF91CF911F910F910895EA
:1007D000CF92DF92FF920F931F93CF93DF9300D0BE
:1007E00000D0CDB7DEB76C01F62E29833A834B8358
:1007F0005C8314DFC6012DDF6CE271E0C601D0DF3F
:100800008F2D806402DF08E110E05C814B813A812A
:100810002981DA01C901002E04C0B695A7959795E4
:1008200087950A94D2F729833A834B835C83EDDE64
:100830000850110929813A814B815C81083F8FEF73
:10084000180739F7FF2029F0E8E0FE1204C087E816
:1008500003C085E901C08FEFD8DE10E0DDDEF601D0
:10086000828787FF04C01F3F11F01F5FF7CF0F90F3
:100870000F900F900F90DF91CF911F910F91FF90EC
:10088000DF90CF900895AF92BF92CF92DF92EF9218
:10089000FF920F931F93CF93DF93EC016901C8017F
:1008A000820F931F8130924008F068C08E818823A8
:1008B00071F088819981AA81BB81481759076A071D
:1008C0007B0729F48F819885C816D90688F5488357
:1008D00059836A837B838B85833039F089E0440FA9
:1008E000551F661F771F8A95D1F79A01AB0161E109
:1008F000CE016EDF882319F083E08D833FC044DF93
:100900005B018ADE8A878F3F41F43EDF6A197B09EB
:100910006D327140B0F38FE003C08E3F29F08DE05F
:100920008D83CE0167DE2AC018861F8281E08E8308
:100930008F8198858C159D0538F46EDE8F819885A2
:10094000019698878F83F4CF6701E00EF11ECE14D5
:10095000DF0429F061DEF60181936F01F8CF8F810A
:100960009885080F191F18870F838985882319F028
:100970000115124038F0CE0151DE04C0CE013ADE3E
:1009800080E001C081E0DF91CF911F910F91FF9036
:10099000EF90DF90CF90BF90AF900895EF92FF92CD
:1009A0000F931F93CF93DF93EC017901411551050C
:1009B0006105710511F482E134C08B85833039F013
:1009C00089E0440F551F661F771F8A95D1F79A015A
:1009D000AB0168E1CE01FCDE882311F084E021C088
:1009E0008EEF13DE87018EEFF81AF80181918F01E7
:1009F0000CDE0E151F05C9F78FEF07DE8FEF05DE42
:100A00000BDE8A878F71853029F081E18D83CE01DD
:100A1000F1DD08C068E572E0CE01C2DE811106C0DA
:100A200085E18D83CE01E6DD80E010C020E030E07E
:100A3000A9016DE0CE01CCDE811103C0EDDD88237C
:100A400011F084E1EECFCE01D5DD81E0DF91CF91D1
:100A50001F910F91FF90EF9008958091D40188230A
:100A600099F1409100015091010160910201709152
:100A7000030125ED31E08091D2019091D3018EDF09
:100A8000811102C080E008954091CE015091CF01C4
:100A90006091D0017091D101411551056105710539
:100AA00089F025ED31E08091D2019091D30176DF7C
:100AB000882341F31092CE011092CF011092D00101
:100AC0001092D1011092D40181E008958F929F92EB
:100AD000AF92BF92EF92FF920F931F93CF934B0170
:100AE0005C01C42F8091000190910101A09102014D
:100AF000B091030188159905AA05BB05F1F0ADDF9A
:100B0000811102C080E01FC085EDE82E81E0F82E43
:100B100000E012E020E030E0B501A4018091D201B4
:100B20009091D301B0DE882369F380920001909206
:100B30000101A0920201B09203018091D401C82B5F
:100B4000C093D40181E0CF911F910F91FF90EF905E
:100B5000BF90AF909F908F9008952F923F924F92A9
:100B60005F926F927F928F929F92AF92BF92CF923D
:100B7000DF92EF92FF920F931F93CF93DF9300D0FA
:100B8000CDB7DEB7FC018581882309F4D6C0848106
:100B900080FFD3C021E02A834389548965897689FF
:100BA00082859385A485B585481759076A077B0711
:100BB00009F41A826F013A81832F90E0DE011196C9
:100BC0004D013F01B6E06B0E711C892B09F47CC00E
:100BD000D6011A964D915D916D917C911D975A01A8
:100BE000B1E0BB22F60125811A012B0189E0569460
:100BF0004794379427948A95D1F7838D948D22302A
:100C000061F4FC01828D938DA48DB58DBC01CD0165
:100C1000620D731D841D951D44C0DC0114961C914A
:100C200011501221A114B104C9F4111117C0452BA0
:100C3000462B472B51F4F6018789908DA18DB28DFB
:100C400086839783A087B18709C0468157816085D5
:100C5000718593018CD6882309F46FC0F601238D2A
:100C6000348D86819781A085B1850297A109B1094C
:100C7000AC01BD01F901058404C0440F551F661F76
:100C8000771F0A94D2F786859785A089B189840F4A
:100C9000951FA61FB71FBC01CD01610F711D811DDE
:100CA000911DD60114962C9126FF14C000910001CD
:100CB0001091010120910201309103016017710729
:100CC0008207930749F506C0FA81FF23B1F18981B4
:100CD00090E035C040E0FADE882379F1F501EB526F
:100CE000FE4FD401CF010196E817F90719F02191C1
:100CF0002D93FACFEFEF8E1A9E0AF6018285938527
:100D0000A485B5850196A11DB11D82879387A4870F
:100D1000B58780E090E059CF740101E010E09501C3
:100D2000AB01BC018091D2019091D301ACDD88234D
:100D300021F0BFEF8B1A9B0AE0CF8FEF9FEF0F9050
:100D40000F90DF91CF911F910F91FF90EF90DF9067
:100D5000CF90BF90AF909F908F907F906F905F905B
:100D60004F903F902F900895FC01818D928D0097B8
:100D700009F0F3CE8FEF9FEF08950F931F93CF935A
:100D8000DF93FC01818D928D0097A9F0EF01E5DEE4
:100D90008C010F3F8FEF180789F0898D9A8DFC0128
:100DA00042855385648575854150510961097109F2
:100DB00082DAC80105C080E090E002C08FEF9FEFAB
:100DC000DF91CF911F910F910895CF93DF93EC01A5
:100DD0008D81882391F18C8187FF2CC06E857F8562
:100DE0008889998941E072DE882339F1EA8980E2B5
:100DF000E89FF0011124DF01AB52BE4F1097E9F0DC
:100E00008D81823050F44B895C896D897E895C9636
:100E10004D935D936D937C935F978F89988DA98D8A
:100E2000BA8DEB52FE4F938F828FB58BA48B8C8142
:100E30008F778C83DF91CF9110CE80E0DF91CF91BF
:100E40000895CF93DF93EC01C0DF882311F01D825A
:100E500081E0DF91CF910895FC01818D928D009703
:100E600009F0B3CF08952F923F924F925F926F9205
:100E70007F928F929F92AF92BF92CF92DF92EF922A
:100E8000FF920F931F93CF93DF9300D000D0CDB785
:100E9000DEB78C015B011A01DC0115968C91159768
:100EA0008130C1F414968C9181FF14C082FF1AC066
:100EB000F801438954896589768982859385A4855B
:100EC000B58584179507A607B70761F0C801F3D960
:100ED000811108C081E090E0F8019383828380E073
:100EE00090E033C1610182C0D8015B968D919C91E5
:100EF0005C97FC01248121502A013B0139E0769462
:100F00006794579447943A95D1F7722E74207A01DA
:100F1000F1E0FF22772009F475C080E092E08E199D
:100F20009F0946018C159D0508F44C01D8015B967C
:100F30002D913C915C9716968D919D910D90BC9151
:100F4000A02D0297A109B109F901058404C0880FF9
:100F5000991FAA1FBB1F0A94D2F74685578560893F
:100F60007189840F951FA61FB71F9C01AD01270D26
:100F7000311D411D511D29013A01811432E09306B2
:100F800009F085C08091000190910101A0910201BA
:100F9000B091030184159505A605B70559F48FEFA7
:100FA0009FEFDC018093000190930101A093020167
:100FB000B09303019501B301A2018091D2019091F8
:100FC000D301ECDC882309F485CF9EEFB91AC81849
:100FD000D908F80182859385A485B585880D991D6A
:100FE000A11DB11D82879387A487B587D8011A9662
:100FF0004D915D916D917C911D97C114D10409F0C3
:1010000073CF83C0E114F10409F087CF16964D9198
:101010005D916D917C91199741155105610571059F
:1010200059F457968D919D910D90BC91A02D0097EC
:10103000A105B10531F520C09E012F5F3F4F97D428
:10104000882309F44DCF89819A81AB81BC81F80155
:10105000238D348DF9012789203129F048EF5FEF86
:101060006FEF7FE004C048EF5FEF60E070E084174F
:101070009507A607B70728F0C801B3D981114DCF4E
:1010800029CFF80186839783A087B18746CFE114E3
:10109000F10421F5D8011A964D915D916D917C91E5
:1010A0001D9753968D919D910D90BC91A02D481741
:1010B00059076A077B0790F0D0DC882309F40ACF30
:1010C000409200015092010160920201709203016E
:1010D0008091D40181608093D40107C041E0C301B5
:1010E000B201F4DC882309F4F5CED501F701EB5207
:1010F000FE4FCF01880D991DE817F90719F02D91C2
:101100002193FACFA80CB91C62CF53968D919D9173
:101110000D90BC91A02D84179507A607B70740F442
:10112000F801438B548B658B768B84818068848334
:10113000D80114968C9183FD02C0C10106C0C8017C
:1011400044DE882309F4C6CEF8CF0F900F900F909D
:101150000F90DF91CF911F910F91FF90EF90DF9053
:10116000CF90BF90AF909F908F907F906F905F9047
:101170004F903F902F900895CF93DF931F92CDB75C
:10118000DEB7698341E050E0BE016F5F7F4F6BDEE9
:101190000F90DF91CF910895CF93DF93EC01898D6C
:1011A0009A8D009739F481E090E09B838A8380E0F8
:1011B00090E00AC0FC011382128255DEE98DFA8D9F
:1011C00022813381232B79F7DF91CF9108951F92EC
:1011D0000F920FB60F9211242F933F938F939F93EB
:1011E000AF93BF938091C7019091C801A091C901AD
:1011F000B091CA013091C60123E0230F2D3720F4AE
:101200000196A11DB11D05C026E8230F0296A11D60
:10121000B11D2093C6018093C7019093C801A0938C
:10122000C901B093CA018091C2019091C301A091FC
:10123000C401B091C5010196A11DB11D8093C201E9
:101240009093C301A093C401B093C501BF91AF9126
:101250009F918F913F912F910F900FBE0F901F90F4
:101260001895089580E090E00895FC01538D448D19
:10127000252F30E0842F90E0821B930B541710F041
:10128000CF96089501970895FC01918D828D98174E
:1012900061F0828DDF01A80FB11D5D968C91928D5A
:1012A0009F5F9F73928F90E008958FEF9FEF089557
:1012B000FC01918D828D981731F0828DE80FF11D20
:1012C000858D90E008958FEF9FEF0895FC01918D3B
:1012D000228D892F90E0805C9F4F821B91098F7334
:1012E0009927089580E294E0F1DF21E0892B09F449
:1012F00020E0822F0895FC01848DDF01A80FB11D2D
:10130000A35ABF4F2C91848D90E001968F7399273B
:10131000848FA689B7892C93A089B1898C91806428
:101320008C93938D848D981306C00288F389E02DE9
:1013300080818F7D80830895EF92FF920F931F939A
:10134000CF93DF93EC0181E0888F9B8D8C8D981378
:1013500005C0E889F989808185FD23C0F62E0B8DB3
:1013600010E00F5F1F4F0F731127E02E8C8DE812D6
:101370000BC00FB607FCFACFE889F989808185FF99
:10138000F5CFCE01B8DFF2CF8B8DFE01E80FF11D56
:10139000E35AFF4FF0820B8FEA89FB8980818062DC
:1013A00007C0EE89FF896083E889F98980818064BC
:1013B000808381E090E0DF91CF911F910F91FF90AA
:1013C000EF900895CF93DF93EC01888D8823C1F0CF
:1013D000EA89FB89808185FD05C0A889B9898C913E
:1013E00086FD0EC00FB607FCF5CF808185FFF2CFDA
:1013F000A889B9898C9185FFEDCFCE017CDFE8CF3C
:10140000DF91CF91089580E090E0892B21F06ADF91
:1014100081110C94000008951F920F920FB60F9245
:1014200011242F933F934F935F936F937F938F93E9
:101430009F93AF93BF93EF93FF9380E294E05BDFC2
:10144000FF91EF91BF91AF919F918F917F916F919C
:101450005F914F913F912F910F900FBE0F901F9072
:1014600018951F920F920FB60F9211242F938F93FE
:101470009F93EF93FF93E0913004F09131048081CA
:10148000E0913604F091370482FD12C09081809182
:1014900039048F5F8F7320913A04821751F0E091E5
:1014A0003904F0E0E05EFB4F958F8093390401C072
:1014B0008081FF91EF919F918F912F910F900FBE9F
:1014C0000F901F901895009769F0FC010190002083
:1014D000E9F73197AF01481B590BBC0180E294E05A
:1014E0000C94C50080E090E00895CF93DF93EBDF8C
:1014F000EC018FEB91E0E7DF8C0F9D1FDF91CF9127
:1015000008958F929F92AF92BF92CF92DF92EF9207
:10151000FF92CF93DF93C82F87ED93E09093D30191
:101520008093D201CC2361F1C53010F080E00AC174
:1015300040E060E070E0CB01C9DA8823B9F320E134
:10154000C29FC00111248B539E4FFC01E254FE4FF9
:1015500020812F7759F73C964081518162817381B8
:10156000443651056105710508F33497C080D18078
:10157000E280F380C114D104E104F10421F4D6CF58
:10158000C12CD12C760140E0C701B6019FDA882337
:1015900069F28091E0019091E1018115924031F66C
:1015A000A091E501AA2309F4C1CF6091E3017091F4
:1015B000E4016115710509F4B9CF2091E2012223FC
:1015C00009F4B4CFA093F5032093E70380E030E063
:1015D000E1E0F0E0C82FAF01082E02C0440F551F14
:1015E0000A94E2F72417350741F0982F8F5F98305F
:1015F00089F789E08093F00399CF8093F0032091DD
:10160000EB013091EC012115310519F040E050E07B
:1016100008C02091F9013091FA014091FB015091ED
:10162000FC012093E8033093E9034093EA035093CD
:10163000EB0346015701860E971EA11CB11C809238
:10164000F6039092F703A092F803B092F903E091A9
:10165000E601F091E701F093FC03E093FB03B0E0B7
:1016600040D6860E971EA81EB91E8092FD0390924A
:10167000FE03A092FF03B092000485E0EE0FFF1F6F
:101680008A95E1F7E150FE4FEF2FFF27E6958E0E8A
:101690009F1EA11CB11C8092F1039092F203A092B4
:1016A000F303B092F4032091E8013091E901211590
:1016B000310521F0A90160E070E008C04091F5011A
:1016C0005091F6016091F7017091F801D701C601C0
:1016D00088199909AA09BB09840F951FA61FB71F6E
:1016E00004C0B695A79597958795CA95D2F780932C
:1016F000EC039093ED03A093EE03B093EF03853FCB
:101700002FE09207A105B10510F48CE018C0853FC9
:101710009F4FA105B10510F480E111C08091010235
:1017200090910202A0910302B09104028093FD0304
:101730009093FE03A093FF03B093000480E2809394
:10174000FA0381E0DF91CF91FF90EF90DF90CF908F
:10175000BF90AF909F908F90089590E0FC01EC5562
:10176000FF4F2491FC01E057FF4F8491882399F0AB
:1017700090E0880F991FFC01EA57FF4FA591B491A3
:10178000FC01E458FF4F859194918FB7F894EC9148
:10179000E22BEC938FBF089590E0FC01E859FF4FD6
:1017A0003491FC01EC55FF4F2491FC01E057FF4FB1
:1017B000E491EE2309F43BC0332339F1333091F047
:1017C00038F43130A9F0323001F584B58F7D12C084
:1017D000373091F03830A1F03430B9F48091800086
:1017E0008F7D03C0809180008F77809380000DC033
:1017F00084B58F7784BD09C08091B0008F7703C016
:101800008091B0008F7D8093B000F0E0EE0FFF1F5D
:10181000E458FF4FA591B4918FB7F894EC91611102
:1018200003C020952E2301C02E2B2C938FBF08952B
:101830004F925F926F927F928F929F92AF92BF92E0
:10184000CF92DF92EF92FF920F931F93CF93DF938C
:10185000EC016A017B012801390142305105610523
:10186000710510F480E072C089859A85AB85BC85CE
:101870000196A11DB11D84179507A607B70790F320
:101880008B889C88AD88BE888F89803129F4BB27DE
:10189000AF2D9E2D8D2D09C0DB01CA0147E0B69505
:1018A000A795979587954A95D1F7880E991EAA1EF8
:1018B000BB1E8091000190910101A0910201B091A5
:1018C000030188169906AA06BB0679F48F89803130
:1018D00099F4DD24EE24FF24C601880F991FFC0132
:1018E000EB52FE4F5182408218C040E0C501B40166
:1018F000EDD88111EBCFB6CFE894C7F8DD24EE2404
:10190000FF24C601880F991F880F991FFC01EB5215
:10191000FE4F40825182628273828091D401816045
:101920008093D4018A89823080F08D819E81AF813D
:10193000B885880E991EAA1EBB1E8092CE01909279
:10194000CF01A092D001B092D10181E0DF91CF917F
:101950001F910F91FF90EF90DF90CF90BF90AF90CD
:101960009F908F907F906F905F904F9008958F928F
:101970009F92AF92BF92CF92DF92EF92FF920F931E
:101980001F93CF93DF93FC0181859285A385B48556
:101990000196A11DB11D84179507A607B70710F47E
:1019A00080E05BC083899489A589B689C789C031E5
:1019B00029F4852E962EA72EBB2409C04A015B016F
:1019C000C7E0B694A79497948794CA95D1F7E90194
:1019D0006A017B018F01BC01CD01680D791D8A1D53
:1019E0009B1D8090000190900101A0900201B09099
:1019F0000301681579058A059B0599F4F801878923
:101A00008031A1F4B701A601552766277727440F37
:101A1000551FFA01EB52FE4F80819181A0E0B0E0AA
:101A200017C040E053D88111E9CFBACFB701A60162
:101A30004F77552766277727440F551F440F551FAB
:101A4000FA01EB52FE4F80819181A281B381BF7078
:101A500088839983AA83BB8381E0DF91CF911F9113
:101A60000F91FF90EF90DF90CF90BF90AF909F903D
:101A70008F900895CF93DF93EC016A8B80910001E2
:101A800090910101A0910201B09103018E879F877F
:101A9000A88BB98B80E2689FF0011124EB52FE4FB6
:101AA0004489558960E070E0BA01552744274F8B7F
:101AB000588F698F7A8F828D938DA0E0B0E0482B8C
:101AC000592B6A2B7B2B4F8B588F698F7A8F83858D
:101AD000887151F4848D958DA68DB78D8B8B9C8BE1
:101AE000AD8BBE8B81E00EC0803111F080E015C05F
:101AF0009E012D5E3F4F8B8D9C8D0E94F2008823AE
:101B0000A9F384E08D8381E08C831E821F82188676
:101B100019861A861B861C861D86DF91CF91089533
:101B2000AF92BF92CF92DF92EF92FF920F931F93EB
:101B3000CF93DF93CDB7DEB72B970FB6F894DEBF08
:101B40000FBECDBF7C01CE0101966C01FC0190E27D
:101B50008BE08C0D91938E13FDCFDA0120E037E0FE
:101B60009D91992339F19E3219F0E8EBF0E00AC01B
:101B70003A3009F4A8C028E03AE0F2CF319689174C
:101B800009F4A1C084918111F9CF321708F49BC0E8
:101B90008FED890F8E3508F096C081E0820FF60137
:101BA000E20FF11D2FE9290F2A3108F4905290839A
:101BB000282FD6CF8981803209F485C08B01FB01A3
:101BC000838D948DF701948F838FFB01168217828A
:101BD000108611861286138614861586A12CF801AC
:101BE00082859385A485B5854389548965897689DD
:101BF00084179507A607B70708F065C025E0B695D6
:101C0000A795979587952A95D1F7F82FFF70BF2E46
:101C1000F8018581823008F456C0C8010E94AD05E4
:101C200097FD51C0F80182859385A485B5854F96AF
:101C3000A11DB11D82879387A487B587F0E2BF9E5F
:101C4000C0011124BC016B527E4F61157105D9F1A1
:101C5000FB0120812223A9F1253ED1F04BE050E089
:101C6000C6018FD4892B09F0BACF6B2DC7012B96F3
:101C70000FB6F894DEBF0FBECDBFDF91CF911F919D
:101C80000F91FF90EF90DF90CF90BF90AF90F2CE8A
:101C9000A11014C0F701B28A4091000150910101D6
:101CA000609102017091030146875787608B718BA9
:101CB000FC01EB52FE4F8081882329F0AA24A394D3
:101CC0008ECFAA2039F380E02B960FB6F894DEBFB2
:101CD0000FBECDBFDF91CF911F910F91FF90EF907D
:101CE000DF90CF90BF90AF900895CF93DF93CDB7A3
:101CF000DEB7C257D1090FB6F894DEBF0FBECDBF15
:101D0000789484B5826084BD84B5816084BD85B5D6
:101D1000826085BD85B5816085BD80916E008160E2
:101D200080936E0010928100809181008260809388
:101D3000810080918100816080938100809180008A
:101D40008160809380008091B10084608093B100B5
:101D50008091B00081608093B00080917A008460AF
:101D600080937A0080917A00826080937A008091DB
:101D70007A00816080937A0080917A0080688093F5
:101D80007A001092C100E0913004F091310482E0B9
:101D90008083E0912C04F0912D041082E0912E04B8
:101DA000F0912F048FEC808310923804E09134047A
:101DB000F091350486E08083E0913204F0913304A1
:101DC000808180618083E0913204F09133048081CE
:101DD00088608083E0913204F091330480818068D0
:101DE0008083E0913204F091330480818F7D808381
:101DF0008AE591E068DB1092E2031092E003109212
:101E0000DD031092DC038AE08093DB030E94C403AD
:101E10008B018091DB03A1DC61E08091DB03BCDC02
:101E2000FFB6F8948091CD01811120C0EAE9F0E07D
:101E30008491EEEAF0E09491E82FF0E0EE0FFF1FBE
:101E4000EA57FF4FA591B491EC91E92319F461E0B1
:101E50008AE0A2DC8AE081DC8CB580618CBD8CB527
:101E600080648CBD8DE079DC8BE077DC8091CD01E6
:101E70008F5F8093CD01FFBE82E58093D5031092E2
:101E8000D6038091D5039091D6030E9426035AE091
:101E9000F52E8FEF0E940503FA94F110FACF87ED2B
:101EA00093E00E94290320E030E0A90160E087ED83
:101EB00093E00E94E803F82E8093E10381E0F81696
:101EC00049F00E94C403601B710B613D774058F3D9
:101ED00081E056C02AEA31E040E050E068E087ED5A
:101EE00093E00E94E80382FF03C0F092E20310C077
:101EF00044E0F42E0E940C038093E103FA94F11065
:101F0000F9CF8A3A11F082E03BC082E08093E2038D
:101F10008091E203823021F0C12CD12C760105C0E2
:101F2000C12CD12CE12C30E4F32E20E030E0A901CB
:101F300067E387ED93E00E94E803A701960169E259
:101F400087ED93E00E94E8038093E103882349F042
:101F50000E94C403601B710B613D774030F388E041
:101F60000FC08091E203823001F520E030E0A9014A
:101F70006AE387ED93E00E94E803882341F086E05E
:101F80008093DC0387ED93E00E94FA02AAC00E94CE
:101F90000C03807C803C19F483E08093E2030E9470
:101FA0000C030E940C030E940C0387ED93E00E9437
:101FB000FA0280E58093D5031092D60381E0A1DA7E
:101FC000882329F080910604882339F08AC080E0B4
:101FD00098DA882309F485C0F5CF8091FA0380311F
:101FE00009F582E0809306041092180410921904F7
:101FF00010921A0410921B048091FB039091FC0331
:10200000A0E0B0E025E0880F991FAA1FBB1F2A950A
:10201000D1F78093140490931504A0931604B09301
:1020200017041FC0803209F05CC083E0809306046F
:102030004091FD035091FE036091FF0370910004F5
:10204000409318045093190460931A0470931B046E
:1020500024E134E083EE93E00E94F200882309F447
:1020600040C083EE93E090931D0480931C0481E0B4
:10207000809305041092070410920804109209043A
:1020800010920A0410920B0410920C0410920D048A
:1020900010920E0410920F0410921004109211046A
:1020A000109212041092130482E791E01EDA61E0AC
:1020B00074E0CE0101960E943E03BE016F5F7F4F28
:1020C000CE01CB960E943E0319A218A280E191E0B6
:1020D0009F8F8E8F1BA221968FAD2197811105C0F6
:1020E00010C087E891E001DAFFCF825046EB51E063
:1020F0008230E8F461E074E0CE014E9611DD81118A
:1021000022C06C961FAE1EAE6C9788EE93E0A0E0E6
:10211000B0E0A0968CAF9DAFAEAFBFAFA097E396F7
:102120001FAE1EAEE397A5961FAEA5971DC0BE01BC
:10213000655C7F4FCE014E96F3DC882311F3CE0110
:10214000CB960E942107BE01625E7F4FCE010196B1
:102150000E943E0346EB51E0BE016F5F7F4FCE0110
:10216000885A9F4F0E948F036C968EAD9FAD6C97DF
:102170009093C0048093BF04A0968CAD9DADAEAD8E
:10218000BFADA0978093C1049093C204A093C304F1
:10219000B093C404A4968CAD9DADAEADBFADA49775
:1021A0008093C5049093C604A093C704B093C80459
:1021B0008DE0E8E5F0E0EC0FFD1F3C96A9ECB4E003
:1021C00001900D928A95E1F7E396EEADFFADE397AE
:1021D000F093D704E093D604309739F185818823B2
:1021E00021F18EE991E081D98DEB94E00E948E007F
:1021F000892B49F08DEB94E00E94B406682F80E2B1
:1022000094E09AD8F1CF8091D6049091D7040097AA
:1022100079F00E9421078091D6049091D70415D1BE
:102220001092D7041092D60403C088EA91E05DD9D9
:10223000EAD8FECFE5EDF3E080E580831182E7ED9B
:10224000F3E0158216821186138682E090E0A0E00A
:10225000B0E084879587A687B78713A215A614A632
:1022600080E191E093A782A717A6E0E2F4E0138251
:10227000128288EE93E0A0E0B0E084839583A68389
:10228000B7832CE131E03183208325EC30E03587C2
:10229000248724EC30E03787268720EC30E0318B30
:1022A000208B21EC30E0338B228B22EC30E0358B1D
:1022B000248B26EC30E0378B268B118E128E138EFA
:1022C000148EEDEBF4E01382128284839583A6834F
:1022D000B7838EE291E091838083128E118E1486F3
:1022E00008950FD0A59F900DB49F900DA49F800DD1
:1022F000911D11240895EE0FFF1F0590F491E02D1C
:102300000994A29FB001B39FC001A39F700D811DCE
:102310001124911DB29F700D811D1124911D0895EE
:10232000CF93DF938230910510F482E090E0E0914A
:10233000DA04F091DB0420E030E0C0E0D0E0309738
:1023400011F14081518148175907C0F048175907CA
:1023500061F482819381209719F09B838A832BC03B
:102360009093DB048093DA0426C02115310519F01F
:102370004217530718F49A01BE01DF01EF010280F2
:10238000F381E02DDCCF2115310509F1281B390B34
:102390002430310590F412968D919C91139761151C
:1023A000710521F0FB019383828304C09093DB04C9
:1023B0008093DA04FD01329644C0FD01E20FF31F61
:1023C00081939193225031092D933C933AC02091EF
:1023D000D8043091D904232B41F420910601309187
:1023E00007013093D9042093D8042091040130913F
:1023F00005012115310541F42DB73EB74091080183
:1024000050910901241B350BE091D804F091D904B7
:10241000E217F307A0F42E1B3F0B2817390778F0BB
:10242000AC014E5F5F4F2417350748F04E0F5F1F1A
:102430005093D9044093D8048193919302C0E0E073
:10244000F0E0CF01DF91CF9108950F931F93CF93C9
:10245000DF93009709F48CC0FC013297138212823B
:102460000091DA041091DB040115110581F420813B
:102470003181820F931F2091D8043091D9042817FD
:10248000390779F5F093D904E093D80471C0D801E5
:1024900040E050E0AE17BF0750F412962D913C91EA
:1024A0001397AD012115310509F1D901F3CF9D0134
:1024B000DA013383228360817181860F971F82172F
:1024C000930769F4EC0128813981260F371F2E5FAD
:1024D0003F4F318320838A819B8193838283452B65
:1024E00029F4F093DB04E093DA0442C01396FC93E2
:1024F000EE931297ED01499159919E01240F351FDA
:10250000E217F30771F480819181840F951F029681
:1025100011969C938E938281938113969C938E93B4
:102520001297E0E0F0E0D80112968D919C911397FC
:10253000009719F0F8018C01F6CF8D919C919801CC
:102540002E5F3F4F820F931F2091D8043091D90402
:102550002817390769F4309729F41092DB04109298
:10256000DA0402C0138212821093D9040093D804B3
:10257000DF91CF911F910F91089581E090E0F89441
:102580001CC0FB01DC0104C08D910190801921F475
:1025900041505040C8F7881B990B0895FB01DC019E
:1025A0004150504048F001900D920020C9F701C001
:0E25B0001D9241505040E0F70895F894FFCF7F
:1025BE00FFFFFFFF0000DC048000000000000000B1
:1025CE00BC08C50032093109000000009C09C50095
:1025DE003509E20966094409580900000000AF00F8
:1025EE00CC0832092C078E00B406BD060000000090
:1025FE00F000C50032093109F000F000F0000000D3
:10260E000000F000C50032093109496E6974696134
:10261E006C697A696E6720534420636172642E2E52
:10262E002E00696E697469616C697A6174696F6E86
:10263E0020646F6E652E00696E697469616C697ACB
:10264E006174696F6E206661696C656421007465E2
:10265E0073742E7478743A006572726F72206F7094
:10266E00656E696E6720746573742E747874000DD0
:02267E000A0050
:00000001FF
