:1000000064C000008AC0000088C0000086C00000F4
:1000100084C0000082C0000080C000007EC00000DC
:100020007CC000007AC0000078C0000076C00000EC
:1000300074C0000072C0000070C000006EC00000FC
:1000400070C300006AC00000DBC30000B4C300003E
:1000500064C0000062C0000060C000005EC000001C
:100060005CC000005AC000007C3C3E5E2B3D3F2F30
:100070005B5D3B2C2A225C000000000800020100AE
:100080000003040700000000000000000000000062
:10009000250028002B0000000000240027002A0073
:1000A000040404040404040402020202020203031E
:1000B0000303030301020408102040800102040826
:1000C0001020010204081020E41211241FBECFEFFB
:1000D000D8E0DEBFCDBF11E0A0E0B1E0E6E9F9E293
:1000E00002C005900D92A83FB107D9F725E0A8EF0F
:1000F000B1E001C01D92A231B207E1F710E0C5E600
:10010000D0E004C02197FE010E946713C436D107D6
:10011000C9F70E94F70F0C94C91472CFDC015996ED
:10012000ED91FC915A973097B9F083899489A5890C
:10013000B6894285538564857585841B950BA60B0E
:10014000B70B811520E89207A105B10538F08FEFB4
:100150009FE7A0E0B0E0089580E090E00895CF939D
:10016000DF931F92CDB7DEB76983DC01ED91FC917F
:100170000280F381E02D41E050E0BE016F5F7F4FD0
:1001800009950F90DF91CF910895CF92DF92EF9272
:10019000FF920F931F93CF93DF936C017A018B0132
:1001A000C0E0D0E0CE15DF0589F0D8016D918D015A
:1001B000D601ED91FC910190F081E02DC6010995E9
:1001C000892B11F47E0102C02196ECCFC701DF918B
:1001D000CF911F910F91FF90EF90DF90CF900895F6
:1001E000089580E090E00895FC01538D448D252F03
:1001F00030E0842F90E0821B930B541710F0CF96C1
:10020000089501970895FC01918D828D981761F0F2
:10021000828DDF01A80FB11D5D968C91928D9F5F3D
:100220009F73928F90E008958FEF9FEF0895FC01E8
:10023000918D828D981731F0828DE80FF11D858D9B
:1002400090E008958FEF9FEF0895FC01918D228D2E
:10025000892F90E0805C9F4F821B91098F739927B3
:10026000089582E594E0F1DF21E0892B09F420E094
:10027000822F0895FC01848DDF01A80FB11DA35AC0
:10028000BF4F2C91848D90E001968F739927848FB6
:10029000A689B7892C93A089B1898C9180648C93AD
:1002A000938D848D981306C00288F389E02D808198
:1002B0008F7D80830895EF92FF920F931F93CF93CA
:1002C000DF93EC0181E0888F9B8D8C8D981305C0A6
:1002D000E889F989808185FD23C0F62E0B8D10E019
:1002E0000F5F1F4F0F731127E02E8C8DE8120BC08C
:1002F0000FB607FCFACFE889F989808185FFF5CF31
:10030000CE01B8DFF2CF8B8DFE01E80FF11DE35A6D
:10031000FF4FF0820B8FEA89FB898081806207C0E2
:10032000EE89FF896083E889F98980818064808310
:1003300081E090E0DF91CF911F910F91FF90EF90BE
:100340000895CF93DF93EC01888D8823C1F0EA896B
:10035000FB89808185FD05C0A889B9898C9186FDBE
:100360000EC00FB607FCF5CF808185FFF2CFA889BC
:10037000B9898C9185FFEDCFCE017CDFE8CFDF918D
:10038000CF91089580E090E0892B21F06ADF811100
:100390000C9400000895FC01818D928D009709F066
:1003A00061C20895CF93DF93EC01898D9A8D0097F8
:1003B00039F481E090E09B838A8380E090E00AC07A
:1003C000FC0113821282D3D6E98DFA8D228133810A
:1003D000232B79F7DF91CF910895EF92FF920F933E
:1003E0001F93CF93DF93EC017B018A011B821A825A
:1003F00088EE93E0A0E0B0E08C839D83AE83BF8362
:100400008EE291E0998388838DE190E00E947C13D5
:100410009A8F898F009779F02DE1F701DC01019027
:100420000D922A95E1F74CE050E0B801CE010C9610
:100430000E94BA14188EDF91CF911F910F91FF90F7
:10044000EF9008950E94A9146115710579F0FB01E0
:1004500001900020E9F73197AF01461B570BDC01F3
:10046000ED91FC910280F381E02D099480E090E011
:1004700008950F931F93CF93DF93EC01E5DF8C0179
:100480006AE571E0CE01E0DF800F911FDF91CF912F
:100490001F910F9108952F923F924F925F926F920A
:1004A0007F928F929F92AF92BF92CF92DF92EF9204
:1004B000FF920F931F93CF93DF9300D0CDB7DEB79A
:1004C000FC018581882309F4D8C0848180FFD5C0D0
:1004D00021E02A83438954896589768982859385B9
:1004E000A485B585481759076A077B0709F41A825E
:1004F0006F013A81832F90E0DE0111964D013F019B
:10050000B6E06B0E711C892B09F47DC0D6011A96DA
:100510004D915D916D917C911D975A01B1E0BB2287
:10052000F60125811A012B0189E0569447943794EE
:1005300027948A95D1F7838D948D223061F4FC0144
:10054000828D938DA48DB58DBC01CD01620D731D7F
:10055000841D951D45C0DC0114961C91115012217B
:10056000A114B104D1F4111118C0452B462B472B0F
:1005700051F4F6018789908DA18DB28D8683978382
:10058000A087B1870AC04681578160857185930134
:100590000E94590D882309F470C0F601238D348D13
:1005A00086819781A085B1850297A109B109AC0127
:1005B000BD01F901058404C0440F551F661F771F54
:1005C0000A94D2F786859785A089B189840F951FF3
:1005D000A61FB71FBC01CD01610F711D811D911DAB
:1005E000D60114962C9126FF14C0009100011091A1
:1005F0000101209102013091030160177107820708
:10060000930751F506C0FA81FF23B9F1898190E083
:1006100036C040E00E94470B882379F1F501EB5F7B
:10062000FD4FD401CF010196E817F90719F0219188
:100630002D93FACFEFEF8E1A9E0AF60182859385ED
:10064000A485B5850196A11DB11D82879387A487D6
:10065000B58780E090E057CF740101E010E095018C
:10066000AB01BC01809105049091060496D48823C7
:1006700021F0BFEF8B1A9B0AE0CF8FEF9FEF0F9017
:100680000F90DF91CF911F910F91FF90EF90DF902E
:10069000CF90BF90AF909F908F907F906F905F9022
:1006A0004F903F902F900895FC01818D928D00977F
:1006B00009F0F1CE8FEF9FEF08950F931F93CF9323
:1006C000DF93FC01818D928D0097A9F0EF01E3DEAD
:1006D0008C010F3F8FEF180789F0898D9A8DFC01EF
:1006E00042855385648575854150510961097109B9
:1006F000F5D0C80105C080E090E002C08FEF9FEF09
:10070000DF91CF911F910F9108952FB7F8946091C9
:10071000FE017091FF0180910002909101022FBFB4
:1007200008951F920F920FB60F9211242F933F93AB
:100730008F939F93AF93BF938091FE019091FF01A0
:10074000A0910002B09101023091FD0123E0230F3E
:100750002D3720F40196A11DB11D05C026E8230FF9
:100760000296A11DB11D2093FD018093FE0190937F
:10077000FF01A0930002B09301028091F9019091D2
:10078000FA01A091FB01B091FC010196A11DB11DE0
:100790008093F9019093FA01A093FB01B093FC01BF
:1007A000BF91AF919F918F913F912F910F900FBE6D
:1007B0000F901F9018951F920F920FB60F92112451
:1007C0002F933F934F935F936F937F938F939F9359
:1007D000AF93BF93EF93FF9382E594E04BDDFF91DE
:1007E000EF91BF91AF919F918F917F916F915F91A9
:1007F0004F913F912F910F900FBE0F901F90189522
:100800001F920F920FB60F9211242F938F939F93E5
:10081000EF93FF93E0916204F09163048081E09193
:100820006804F091690482FD12C0908180916B048C
:100830008F5F8F7320916C04821751F0E0916B04ED
:10084000F0E0EE5AFB4F958F80936B0401C08081DE
:10085000FF91EF919F918F912F910F900FBE0F906D
:100860001F901895CF93DF93EC018D81882391F130
:100870008C8187FF2CC06E857F858889998941E0AE
:1008800006D7882339F1EA8980E2E89FF001112434
:10089000DF01AB5FBD4F1097E9F08D81823050F4DE
:1008A0004B895C896D897E895C964D935D936D93D0
:1008B0007C935F978F89988DA98DBA8DEB5FFD4FE3
:1008C000938F828FB58BA48B8C818F778C83DF91F4
:1008D000CF91A2C680E0DF91CF9108958F929F9231
:1008E000AF92BF92CF92DF92EF92FF920F931F933E
:1008F000CF93DF93EC018D81811102C080E077C03E
:100900000B891C892D893E8904171507260737078F
:10091000A8F36A017B01823029F4CA86DB86EC8663
:10092000FD860DC0C114D104E104F10451F41E820E
:100930001F82188619861A861B861C861D8681E0F2
:1009400056C08A849B84AC84BD84EB8DFC8D258548
:1009500030E0275F3F4FB501A401415051096109C3
:100960007109022E04C076956795579547950A94AC
:10097000D2F7D701C6010197A109B10904C0B69504
:10098000A795979587952A95D2F784179507A60777
:10099000B70720F089288A288B2849F44F89588D79
:1009A000698D7A8D4E835F836887798704C0841B45
:1009B000950BA60BB70B4C015D018E010A5F1F4F13
:1009C00081149104A104B10409F4A7CF4E815F8181
:1009D0006885798598018B8D9C8D0E94590D91E0D9
:1009E000891A9108A108B1088111EACF87CFDF9158
:1009F000CF911F910F91FF90EF90DF90CF90BF901C
:100A0000AF909F908F9008958F929F92AF92BF92D8
:100A1000CF92DF92EF92FF920F931F93CF93DF93CA
:100A200000D000D0CDB7DEB77C0180E2689F6001C6
:100A3000112496012B5F3D4FD9011B969C9191711A
:100A400021F0842F827409F095C0142FF701628B76
:100A50008091000190910101A0910201B0910301E8
:100A600086879787A08BB18BF601EB5FFD4F44899A
:100A7000558960E070E0BA0155274427D7015796A1
:100A80004D935D936D937C935A97828D938DA0E0E7
:100A9000B0E0482B592B6A2B7B2BD70157964D93EF
:100AA0005D936D937C935A97D9011B968C918871B5
:100AB00059F4848D958DA68DB78DF701838B948B1A
:100AC000A58BB68B81E012C0803109F053C097012D
:100AD0002D5E3F4FD7015B968D919C915C970E9454
:100AE000DC0D882309F446C084E0F7018583812F5B
:100AF0008F70D70114968C931497F7011682178282
:100B0000108611861A961D921D921D921C921D9799
:100B100016FF32C015968C91813061F511FF2AC005
:100B2000F7014389548965897689452B462B472BE4
:100B300009F45CC040E050E0BA01C701CFDE882371
:100B4000C9F0F7018788908CA18CB28CC38CD48CAF
:100B500082E090E0A0E0B0E0F60180839183A28380
:100B6000B3839E012F5F3F4FB501A401C601A1D7FA
:100B7000811104C080E03AC081E038C000E010E09C
:100B80009801B501A401C601F5D6882399F389809F
:100B90009A80AB80BC80D60157968C91803129F029
:100BA00088EF9FEFAFEFBFE004C088EF9FEFA0E0BA
:100BB000B0E088169906AA06BB0698F2D7015796A8
:100BC0001D921D921D921C925A97F701138A148A46
:100BD000158A168A848180688483C70143DE88234E
:100BE00049F240E050E0BA01C70178DE0F900F9063
:100BF0000F900F90DF91CF911F910F91FF90EF9089
:100C0000DF90CF90BF90AF909F908F900895CF933B
:100C1000DF93EC0127DE882311F01D8281E0DF9154
:100C2000CF9108953F924F925F926F927F928F92F1
:100C30009F92AF92BF92CF92DF92EF92FF920F936B
:100C40001F93CF93DF93CDB7DEB72C970FB6F894F1
:100C5000DEBF0FBECDBF5C01DC015B968D909C902A
:100C60005C971696CD90DD90ED90FC901997C1148D
:100C7000D104E104F10439F0BFEFCB1ADB0AEB0A2F
:100C8000FB0A312C07C0F401C080D180E280F380E0
:100C900033243394F40181859285A385B4859C0126
:100CA000AD012F5F3F4F4F4F5F4F29873A874B87EB
:100CB0005C87260137011D821E821F821886F4017F
:100CC00081859285A385B4852D813E814F8158858C
:100CD000281739074A075B0708F060C089859A859D
:100CE000AB85BC858C159D05AE05BF0550F482E033
:100CF000C82ED12CE12CF12C92E0492E512C612CE4
:100D0000712C9E012F5F3F4FB701A601C401D1D6C0
:100D1000882309F443C089819A81AB81BC81892BE6
:100D20008A2B8B2B41F0260137019FEF491A590A74
:100D3000690A790A05C0C414D504E604F70491F0E1
:100D40002D813E814F8158852F5F3F4F4F4F5F4F21
:100D50002D833E834F8358873FEFC31AD30AE30A9C
:100D6000F30AADCF0FEF1FEF2FEF3FE0B301A2016A
:100D7000C40100D6882391F0D50116964D915D915E
:100D80006D917C911997411551056105710541F0EF
:100D900093018201C401EED5811102C080E02AC016
:100DA000D50116964D925D926D927C9219973320E3
:100DB00051F0D301C2010196A11DB11DF401808340
:100DC0009183A283B383F5018789908DA18DB28D24
:100DD000892B8A2B8B2B69F4D50157964D925D9206
:100DE0006D927C925A9714968C9114978068149601
:100DF0008C9381E02C960FB6F894DEBF0FBECDBF6A
:100E0000DF91CF911F910F91FF90EF90DF90CF90E6
:100E1000BF90AF909F908F907F906F905F904F901A
:100E20003F9008958FB7F894809103028FBF089583
:100E300061E0FC018481A4D38091020281111092AF
:100E4000020208958EBD00000DB407FEFDCF8EB5E1
:100E500008958FEFF7CF0F931F93CF93DF93EB019D
:100E600054DC8B01F6DF8F3F41F04FDC601B710BD0
:100E70006C177D07B8F380E001C081E0DF91CF916E
:100E80001F910F910895CF93DF93EC018E818823FA
:100E900079F08F8198859C012F5F3F4F38872F8392
:100EA0008230924010F4D5DFF4CFCE01C1DF1E8234
:100EB000DF91CF9108958CBD9DBD0895CF93DF93B1
:100EC000EC0180910202811108C081E0809302024E
:100ED0008091070490910804EEDF60E08C81DF913F
:100EE000CF914EC3CF92DF92FF920F931F93CF9378
:100EF000DF9300D000D0CDB7DEB76C01F62E29838A
:100F00003A834B835C83BFDFC601D8DF6CE271E0BC
:100F1000C601A1DF8F2D806495DF08E110E05C81C0
:100F20004B813A812981DA01C901002E04C0B695AE
:100F3000A795979587950A94D2F729833A834B838F
:100F40005C8380DF0850110929813A814B815C81E3
:100F5000083F8FEF180739F7FF2029F0E8E0FE126D
:100F600004C087E803C085E901C08FEF6BDF10E0A4
:100F700070DFF601828787FF04C01F3F11F01F5FFB
:100F8000F7CF0F900F900F900F90DF91CF911F919F
:100F90000F91FF90DF90CF900895AF92BF92CF92C4
:100FA000DF92EF92FF920F931F93CF93DF93EC01A9
:100FB0006901C801820F931F8130924008F068C018
:100FC0008E81882371F088819981AA81BB8148171D
:100FD00059076A077B0729F48F819885C816D906B7
:100FE00088F5488359836A837B838B85833039F006
:100FF00089E0440F551F661F771F8A95D1F79A0124
:10100000AB0161E1CE016EDF882319F083E08D83AF
:101010003FC07BDB5B011DDF8A878F3F41F475DBBF
:101020006A197B096D327140B0F38FE003C08E3FC7
:1010300029F08DE08D83CE01FBDE2AC018861F8249
:1010400081E08E838F8198858C159D0538F401DFB2
:101050008F819885019698878F83F4CF6701E00E82
:10106000F11ECE14DF0429F0F4DEF60181936F0146
:10107000F8CF8F819885080F191F18870F838985EE
:10108000882319F00115124038F0CE01FCDE04C0AF
:10109000CE01CEDE80E001C081E0DF91CF911F91D3
:1010A0000F91FF90EF90DF90CF90BF90AF90089599
:1010B000EF92FF920F931F93CF93DF93EC0179018F
:1010C000411551056105710511F482E134C08B852C
:1010D000833039F089E0440F551F661F771F8A95CA
:1010E000D1F79A01AB0168E1CE01FCDE882311F053
:1010F00084E021C08EEFA6DE87018EEFF81AF8019A
:1011000081918F019FDE0E151F05C9F78FEF9ADEC3
:101110008FEF98DE9EDE8A878F71853029F081E11E
:101120008D83CE0185DE08C068E572E0CE0193DED6
:10113000811106C085E18D83CE017ADE80E010C08A
:1011400020E030E0A9016DE0CE01CCDE811103C0CA
:1011500080DE882311F084E1EECFCE0169DE81E0EC
:10116000DF91CF911F910F91FF90EF9008952F92F3
:101170003F924F925F926F927F928F929F92AF9227
:10118000BF92CF92DF92EF92FF920F931F93CF9374
:10119000DF9300D000D0CDB7DEB78C015B011A0120
:1011A000DC0115968C9115978130C1F414968C91C1
:1011B00081FF14C082FF1AC0F801438954896589F0
:1011C000768982859385A485B58584179507A607BA
:1011D000B70761F0C80182DB811108C081E090E0AF
:1011E000F8019383828380E090E033C1610182C083
:1011F000D8015B968D919C915C97FC0124812150D4
:101200002A013B0139E076946794579447943A95C4
:10121000D1F7722E74207A01F1E0FF22772009F4D1
:1012200075C080E092E08E199F0946018C159D05DE
:1012300008F44C01D8015B962D913C915C97169671
:101240008D919D910D90BC91A02D0297A109B1099E
:10125000F901058404C0880F991FAA1FBB1F0A94B7
:10126000D2F74685578560897189840F951FA61F1F
:10127000B71F9C01AD01270D311D411D511D2901D5
:101280003A01811432E0930609F085C08091000193
:1012900090910101A0910201B0910301841595057F
:1012A000A605B70559F48FEF9FEFDC01809300018D
:1012B00090930101A0930201B09303019501B30142
:1012C000A2018091050490910604F2DE882309F4BE
:1012D00085CF9EEFB91AC818D908F8018285938581
:1012E000A485B585880D991DA11DB11D82879387A1
:1012F000A487B587D8011A964D915D916D917C9127
:101300001D97C114D10409F073CF83C0E114F10417
:1013100009F087CF16964D915D916D917C9119974B
:10132000411551056105710559F457968D919D91AF
:101330000D90BC91A02D0097A105B10531F520C0FD
:101340009E012F5F3F4FB5D3882309F44DCF89818C
:101350009A81AB81BC81F801238D348DF9012789F5
:10136000203129F048EF5FEF6FEF7FE004C048EFD6
:101370005FEF60E070E084179507A607B70728F0D5
:10138000C80150DC81114DCF29CFF80186839783A6
:10139000A087B18746CFE114F10421F5D8011A9650
:1013A0004D915D916D917C911D9753968D919D917D
:1013B0000D90BC91A02D481759076A077B0790F044
:1013C0002BD1882309F40ACF4092000150920101E9
:1013D0006092020170920301809104028160809307
:1013E000040207C041E0C301B20151D1882309F4CE
:1013F000F5CED501F701EB5FFD4FCF01880D991DAB
:10140000E817F90719F02D912193FACFA80CB91C10
:1014100062CF53968D919D910D90BC91A02D841714
:101420009507A607B70740F4F801438B548B658BEB
:10143000768B848180688483D80114968C9183FD97
:1014400002C0C10106C0C8010DDA882309F4C6CE66
:10145000F8CF0F900F900F900F90DF91CF911F91C9
:101460000F91FF90EF90DF90CF90BF90AF909F9043
:101470008F907F906F905F904F903F902F90089546
:10148000FC01DB0112968D919C91139793838283CB
:1014900080E191E09183808314968C9114978483EA
:1014A00015968C911597858316964D915D916D914A
:1014B0007C91199746835783608771871A964D915F
:1014C0005D916D917C911D974287538764877587E5
:1014D0001E964D915D916D917C91519746875787EE
:1014E000608B718B52968C915297828B53964D9153
:1014F0005D916D917C915697438B548B658B768B68
:1015000057964D915D916D917C915A97478B508F75
:10151000618F728F5B968D919C915C97948F838F76
:101520000895CF93DF931F92CDB7DEB7698341E073
:1015300050E0BE016F5F7F4F1ADE0F90DF91CF91B9
:10154000089590E0FC01EC54FF4F2491FC01E0561B
:10155000FF4F8491882399F090E0880F991FFC0138
:10156000EA56FF4FA591B491FC01E457FF4F8591D6
:1015700094918FB7F894EC91E22BEC938FBF089580
:1015800090E0FC01E858FF4F3491FC01EC54FF4F10
:101590002491FC01E056FF4FE491EE2309F43BC097
:1015A000332339F1333091F038F43130A9F032304F
:1015B00001F584B58F7D12C0373091F03830A1F03D
:1015C0003430B9F4809180008F7D03C08091800019
:1015D0008F77809380000DC084B58F7784BD09C05C
:1015E0008091B0008F7703C08091B0008F7D809391
:1015F000B000F0E0EE0FFF1FE457FF4FA591B4914C
:101600008FB7F894EC91611103C020952E2301C08F
:101610002E2B2C938FBF0895CF93DF9380910402DC
:10162000882389F1C0910504D091060440910001FE
:1016300050910101609102017091030125E032E0B7
:10164000CE0136DD811102C080E01EC040910A0546
:1016500050910B0560910C0570910D0541155105D8
:101660006105710571F025E032E0CE0121DD8823AE
:1016700059F310920A0510920B0510920C05109266
:101680000D051092040281E0DF91CF9108958F92B1
:101690009F92AF92BF92EF92FF920F931F93CF93BF
:1016A0004B015C01C42F8091000190910101A09138
:1016B0000201B091030188159905AA05BB05F1F057
:1016C000ABDF811102C080E01FC085E0E82E82E020
:1016D000F82E00E012E020E030E0B501A401809196
:1016E00005049091060459DC882369F38092000177
:1016F00090920101A0920201B09203018091040234
:10170000C82BC093040281E0CF911F910F91FF90ED
:10171000EF90BF90AF909F908F9008958F929F927F
:10172000AF92BF92CF92DF92EF92FF92CF93DF936F
:10173000C82F89E094E09093060480930504CC239D
:1017400061F1C53010F080E00AC140E060E070E077
:10175000CB019DDF8823B9F320E1C29FC001112492
:101760008B509E4FFC01E254FE4F20812F7759F79A
:101770003C964081518162817381443651056105F7
:10178000710508F33497C080D180E280F380C114E2
:10179000D104E104F10421F4D6CFC12CD12C76017F
:1017A00040E0C701B60173DF882369F2809110021F
:1017B000909111028115924031F6A0911502AA2351
:1017C00009F4C1CF60911302709114026115710583
:1017D00009F4B9CF20911202222309F4B4CFA093C7
:1017E00027042093190480E030E0E1E0F0E0C82F06
:1017F000AF01082E02C0440F551F0A94E2F72417C8
:10180000350741F0982F8F5F983089F789E08093F2
:10181000220499CF8093220420911B0230911C0254
:101820002115310519F040E050E008C0209129024F
:1018300030912A0240912B0250912C0220931A04DD
:1018400030931B0440931C0450931D044601570120
:10185000860E971EA11CB11C809228049092290428
:10186000A0922A04B0922B04E0911602F091170284
:10187000F0932E04E0932D04B0E01FD7860E971E40
:10188000A81EB91E80922F0490923004A0923104B9
:10189000B092320485E0EE0FFF1F8A95E1F7E15028
:1018A000FE4FEF2FFF27E6958E0E9F1EA11CB11C49
:1018B0008092230490922404A0922504B0922604DE
:1018C00020911802309119022115310521F0A9014A
:1018D00060E070E008C040912502509126026091BE
:1018E000270270912802D701C60188199909AA090F
:1018F000BB09840F951FA61FB71F04C0B695A795F7
:1019000097958795CA95D2F780931E0490931F04EC
:10191000A0932004B0932104853F2FE09207A105F6
:10192000B10510F48CE018C0853F9F4FA105B105AB
:1019300010F480E111C08091310290913202A091A7
:101940003302B091340280932F0490933004A0931B
:101950003104B093320480E280932C0481E0DF9163
:10196000CF91FF90EF90DF90CF90BF90AF909F907E
:101970008F9008954F925F926F927F928F929F9275
:10198000AF92BF92CF92DF92EF92FF920F931F938D
:10199000CF93DF93EC016A017B01280139014230CA
:1019A00051056105710510F480E072C089859A8542
:1019B000AB85BC850196A11DB11D84179507A607AF
:1019C000B70790F38B889C88AD88BE888F8980315B
:1019D00029F4BB27AF2D9E2D8D2D09C0DB01CA0137
:1019E00047E0B695A795979587954A95D1F7880EC4
:1019F000991EAA1EBB1E8091000190910101A09129
:101A00000201B091030188169906AA06BB0679F473
:101A10008F89803199F4DD24EE24FF24C601880FDC
:101A2000991FFC01EB5FFD4F5182408218C040E0DE
:101A3000C501B4012CDE8111EBCFB6CFE894C7F815
:101A4000DD24EE24FF24C601880F991F880F991FFB
:101A5000FC01EB5FFD4F4082518262827382809174
:101A600004028160809304028A89823080F08D8133
:101A70009E81AF81B885880E991EAA1EBB1E8092DA
:101A80000A0590920B05A0920C05B0920D0581E01D
:101A9000DF91CF911F910F91FF90EF90DF90CF904A
:101AA000BF90AF909F908F907F906F905F904F907E
:101AB00008958F929F92AF92BF92CF92DF92EF9252
:101AC000FF920F931F93CF93DF93FC018185928543
:101AD000A385B4850196A11DB11D84179507A6079E
:101AE000B70710F480E05BC083899489A589B68923
:101AF000C789C03129F4852E962EA72EBB2409C094
:101B00004A015B01C7E0B694A79497948794CA955D
:101B1000D1F7E9016A017B018F01BC01CD01680D9C
:101B2000791D8A1D9B1D8090000190900101A0905D
:101B30000201B0900301681579058A059B0599F4A7
:101B4000F80187898031A1F4B701A60155276627DE
:101B50007727440F551FFA01EB5FFD4F808191817C
:101B6000A0E0B0E017C040E092DD8111E9CFBACF2C
:101B7000B701A6014F77552766277727440F551FD2
:101B8000440F551FFA01EB5FFD4F80819181A281C7
:101B9000B381BF7088839983AA83BB8381E0DF917F
:101BA000CF911F910F91FF90EF90DF90CF90BF905A
:101BB000AF909F908F9008954F925F926F927F9217
:101BC000AF92BF92CF92DF92EF92FF920F931F934B
:101BD000CF93DF9300D000D0CDB7DEB78C0149831F
:101BE0005A836B837C835901C12CD12C7601412C03
:101BF00082E0582E612C712C49815A816B817C8145
:101C00009E012F5F3F4FC80154DF882351F1D3015C
:101C1000C201F801058404C0880F991FAA1FBB1FC9
:101C20000A94D2F7C80ED91EEA1EFB1E49815A81BA
:101C30006B817C818789803129F088EF9FEFAFEF3E
:101C4000BFE004C088EF9FEFA0E0B0E0481759075D
:101C50006A077B0788F2F501C082D182E282F382B3
:101C600081E00F900F900F900F90DF91CF911F9117
:101C70000F91FF90EF90DF90CF90BF90AF907F904B
:101C80006F905F904F9008954F925F926F927F9206
:101C9000AF92BF92CF92DF92EF92FF920F931F937A
:101CA000CF93DF93CDB7DEB72B970FB6F894DEBF97
:101CB0000FBECDBF7C01CE0101966C01FC0190E20C
:101CC0008BE08C0D91938E13FDCFDA0130E047E06D
:101CD0009D91992339F19E3219F0E8E6F0E00AC0AF
:101CE0004A3009F46EC138E04AE0F2CF31968917E4
:101CF00009F467C184918111F9CF431708F461C1D8
:101D00008FED890F8E3508F05CC181E0830FF601FD
:101D1000E30FF11D3FE9390F3A3108F490529083F7
:101D2000382FD6CF8981803209F44BC1B22E8B0176
:101D3000DB015B968D919C915C97F701948F838F6B
:101D400016961D921D921D921C921997FB011286E8
:101D5000138614861586712CF80182859385A485D7
:101D6000B585438954896589768984179507A607BF
:101D7000B70708F060C025E0B695A79597958795B9
:101D80002A95D1F7F82FFF706F2ED80115968C91F8
:101D9000823008F416C1C8010E944B0297FD11C1A0
:101DA000F80182859385A485B5854F96A11DB11D47
:101DB00082879387A487B587F0E26F9EC0011124C4
:101DC000BC016B5F7D4F6115710509F4FAC0DB0141
:101DD0002C91222319F0253EC1F426C071100EC0AB
:101DE000F701628A40910001509101016091020166
:101DF0007091030146875787608B718BFC01EB5F05
:101E0000FD4F8081811112C014C04BE050E0C6012B
:101E1000A4D5892B09F0A0CF8B2D8073803309F4D2
:101E2000D0C04B2D662DC9C07720D1F27724739492
:101E300093CF772473948B2D8271823109F0C1C0C6
:101E40007720C9F0D7011E966D917D918D919C915F
:101E5000519741E01CDC882309F4B3C0F701628983
:101E6000F0E26F9FB00111246B5F7D4F611571052A
:101E700009F078C0A6C0D80115968C91823009F47B
:101E8000A0C0C8010E941206882309F49AC0D80194
:101E90005B96ED91FC915C9716964D905D906D90E0
:101EA0007C901997B2E04B1A5108610871080584BB
:101EB00004C0440C551C661C771C0A94D2F7868516
:101EC0009785A089B189480E591E6A1E7B1EA48081
:101ED000E1E04E1A510861087108AA2001F19CDB6B
:101EE000882309F46EC0E5E0F2E0119224E0E530C9
:101EF000F207D9F7D301C2018A0D911DA11DB11DB1
:101F00008093000190930101A0930201B09303011B
:101F100080910402816080930402AA94DECFD801EC
:101F20005B96ED91FC915C9780E092E0A0E0B0E0E0
:101F3000058404C0880F991FAA1FBB1F0A94D2F7FB
:101F4000F8014389548965897689840F951FA61FF6
:101F5000B71F838B948BA58BB68BD70152961C929F
:101F600065E072E080E2FB0111928A95E9F78BE06F
:101F7000F601DB0101900D928A95E1F781E298E28A
:101F8000DB0151969C938E93509720E038E01F968A
:101F90003C932E931E9753969C938E9352975996EB
:101FA0009C938E93589757963C932E93569734DB79
:101FB000882339F04B2DF7016289C7010E9404057F
:101FC00001C080E02B960FB6F894DEBF0FBECDBFE8
:101FD000DF91CF911F910F91FF90EF90DF90CF9005
:101FE000BF90AF907F906F905F904F900895CF9388
:101FF000DF93CDB7DEB7C657D1090FB6F894DEBF71
:102000000FBECDBF789484B5826084BD84B58160F5
:1020100084BD85B5826085BD85B5816085BD8091B3
:102020006E00816080936E0010928100809181002B
:102030008260809381008091810081608093810023
:10204000809180008160809380008091B1008460E5
:102050008093B1008091B00081608093B000809146
:102060007A00846080937A0080917A008260809305
:102070007A0080917A00816080937A0080917A0062
:10208000806880937A001092C100E0916204F09120
:10209000630482E08083E0915E04F0915F0410822B
:1020A000E0916004F09161048FEC808310926A04E7
:1020B000E0916604F091670486E08083E091640417
:1020C000F0916504808180618083E0916404F091E7
:1020D0006504808188608083E0916404F0916504E8
:1020E000808180688083E0916404F0916504808140
:1020F0008F7D80836DE571E082E594E00E9424028B
:10210000109214041092120410920F0410920E04F4
:102110008AE080930D040E9485038B0180910D0459
:1021200010DA61E080910D042BDAFFB6F89480910B
:10213000F801811120C0EAEAF0E08491EEEBF0E0D2
:102140009491E82FF0E0EE0FFF1FEA56FF4FA591A4
:10215000B491EC91E92319F461E08AE011DA8AE0A4
:10216000F0D98CB580618CBD8CB580648CBD8DE060
:10217000E8D98BE0E6D98091F8018F5F8093F80170
:10218000FFBE82E580930704109208048091070443
:10219000909108040E945B075AE0F52E8FEF0E9491
:1021A0002207FA94F110FACF89E094E00E945E07CA
:1021B00020E030E0A90160E089E094E00E9472072D
:1021C000F82E80931304E1E08E1749F00E948503F6
:1021D000601B710B613D774058F381E056C02AEADD
:1021E00031E040E050E068E089E094E00E9472074E
:1021F00082FF03C0F092140410C044E0F42E0E9449
:10220000290780931304FA94F110F9CF8A3A11F058
:1022100082E03BC082E080931404809114048230F9
:1022200021F0C12CD12C760105C0C12CD12CE12C80
:1022300030E4F32E20E030E0A90167E389E094E088
:102240000E947207A701960169E289E094E00E946A
:10225000720780931304882349F00E948503601B52
:10226000710B613D774030F388E00FC0809114041A
:10227000823001F520E030E0A9016AE389E094E0D2
:102280000E947207882341F086E080930E0489E063
:1022900094E00E941807AAC00E942907807C803C15
:1022A00019F483E0809314040E9429070E942907EF
:1022B0000E94290789E094E00E94180780E5809336
:1022C00007041092080481E029DA882329F080911C
:1022D0003804882339F08AC080E020DA882309F4A2
:1022E00085C0F5CF80912C04803109F582E0809380
:1022F000380410924A0410924B0410924C0410922D
:102300004D0480912D0490912E04A0E0B0E025E0D2
:10231000880F991FAA1FBB1F2A95D1F780934604E7
:1023200090934704A0934804B09349041EC08032A0
:1023300009F05CC083E08093380440912F045091F1
:102340003004609131047091320440934A045093F8
:102350004B0460934C0470934D0426E434E085E113
:1023600094E02ADC882309F441C085E194E090934D
:102370004F0480934E0481E0809337041092390417
:1023800010923A0410923B0410923C0410923D04C7
:1023900010923E0410923F041092400410924104A7
:1023A0001092420410924304109244041092450487
:1023B00065E771E082E594E00E94390263E374E02E
:1023C000CE0101965DD8BE016F5F7F4FCE01CF96E3
:1023D00057D81DA21CA280E191E09BA38AA31FA253
:1023E00025968FAD2597811108C014C06AE871E069
:1023F00082E594E00E943902FFCF825023E14EEE45
:1024000051E08230E8F463E374E0CE0182963CDC74
:10241000811122C0A0961FAE1EAEA09788EE93E059
:10242000A0E0B0E0A4968CAF9DAFAEAFBFAFA497D5
:10243000E7961FAE1EAEE797A9961FAEA99724C0D8
:10244000BE01615C7F4FCE0182961EDC882311F3B2
:10245000CE01CF960E9407064DA95EA96FA978AD5F
:10246000CE0182960E946E04BE016E5D7F4FCE014A
:10247000019606D84EEE51E0BE016F5F7F4FCE0150
:10248000845A9F4F0E94ED01A0968EAD9FADA097FC
:102490009093F2048093F104A4968CAD9DADAEAD03
:1024A000BFADA4978093F3049093F404A093F50434
:1024B000B093F604A8968CAD9DADAEADBFADA89718
:1024C0008093F7049093F804A093F904B093FA046E
:1024D0008DE0ECE5F0E0EC0FFD1F3C96ABEFB4E0D7
:1024E00001900D928A95E1F7E796EEADFFADE79783
:1024F000F0930905E0930805309709F45CC08581E5
:10250000882309F458C061EA71E082E594E00E94F2
:10251000240268EB71E08FEE94E00E9439026FECC8
:1025200071E08FEE94E00E943902C12CD12C76012B
:102530008AE0882E912CA12CB12C19A2A70196011A
:102540008E010F5D1F4FCA01B901A501940193D0FF
:10255000605DF80162938F01211531054105510538
:1025600091F7BF018FEE94E00E9424026AE571E0CA
:102570008FEE94E00E942402FFEFCF1ADF0AEF0AE9
:10258000FF0A84E1C816D104E104F104B1F6809198
:10259000080590910905009759F00E94070680915F
:1025A0000805909109053DD1109209051092080582
:1025B00064E871E002C060EE71E082E594E00E94A0
:1025C00039020E94C201FDCFE7E0F4E080E580839C
:1025D0001182E9E0F4E0158216821186138682E00A
:1025E00090E0A0E0B0E084879587A687B78713A224
:1025F00015A614A680E191E093A782A717A6E2E5AD
:10260000F4E01382128288EE93E0A0E0B0E08483CD
:102610009583A683B7832CE131E03183208325ECB9
:1026200030E03587248724EC30E03787268720EC9C
:1026300030E0318B208B21EC30E0338B228B22EC8D
:1026400030E0358B248B26EC30E0378B268B118ED7
:10265000128E138E148EEFEEF4E0138212828483B6
:102660009583A683B7838EE291E091838083128E57
:10267000118E14860895A1E21A2EAA1BBB1BFD0120
:102680000DC0AA1FBB1FEE1FFF1FA217B307E40751
:10269000F50720F0A21BB30BE40BF50B661F771FA9
:1026A000881F991F1A9469F7609570958095909589
:1026B0009B01AC01BD01CF0108950FD0A59F900DE6
:1026C000B49F900DA49F800D911D11240895EE0FCD
:1026D000FF1F0590F491E02D0994A29FB001B39FD4
:1026E000C001A39F700D811D1124911DB29F700D1B
:1026F000811D1124911D0895CF93DF9382309105A0
:1027000010F482E090E0E0911005F091110520E0D6
:1027100030E0C0E0D0E0309711F14081518148179E
:102720005907C0F04817590761F4828193812097B7
:1027300019F09B838A832BC0909311058093100519
:1027400026C02115310519F04217530718F49A01D4
:10275000BE01DF01EF010280F381E02DDCCF211506
:10276000310509F1281B390B2430310590F41296FC
:102770008D919C9113976115710521F0FB01938355
:10278000828304C09093110580931005FD01329659
:1027900044C0FD01E20FF31F819391932250310950
:1027A0002D933C933AC020910E0530910F05232BB9
:1027B00041F4209106013091070130930F052093D9
:1027C0000E0520910401309105012115310541F4D8
:1027D0002DB73EB74091080150910901241B350BDC
:1027E000E0910E05F0910F05E217F307A0F42E1B00
:1027F0003F0B2817390778F0AC014E5F5F4F241765
:10280000350748F04E0F5F1F50930F0540930E059C
:102810008193919302C0E0E0F0E0CF01DF91CF918E
:1028200008950F931F93CF93DF93009709F48CC003
:10283000FC0132971382128200911005109111054C
:102840000115110581F420813181820F931F2091A0
:102850000E0530910F052817390779F5F0930F050C
:10286000E0930E0571C0D80140E050E0AE17BF07FD
:1028700050F412962D913C911397AD01211531051D
:1028800009F1D901F3CF9D01DA01338322836081FD
:102890007181860F971F8217930769F4EC012881D5
:1028A0003981260F371F2E5F3F4F318320838A8166
:1028B0009B8193838283452B29F4F0931105E09348
:1028C000100542C01396FC93EE931297ED014991C7
:1028D00059919E01240F351FE217F30771F480818F
:1028E0009181840F951F029611969C938E938281FD
:1028F000938113969C938E931297E0E0F0E0D801B9
:1029000012968D919C911397009719F0F8018C0104
:10291000F6CF8D919C9198012E5F3F4F820F931FB0
:1029200020910E0530910F052817390769F430976B
:1029300029F4109211051092100502C01382128220
:1029400010930F0500930E05DF91CF911F910F910A
:10295000089581E090E0F8941CC0FB01DC0104C004
:102960008D910190801921F441505040C8F7881B87
:10297000990B0895FB01DC014150504048F0019053
:102980000D920020C9F701C01D9241505040E0F760
:062990000895F894FFCF4A
:10299600FFFFFFFF0000120580000000000000009E
:1029A600910AC500F100F000000000005B01C500BF
:1029B600F400A10125010301170100000000AF008A
:1029C600D201F100CB018E0054035D03000000002C
:1029D6002202C500F100F0002202220222020000BB
:1029E60000002202C500F100F0000D0A00496E69E0
:1029F6007469616C697A696E6720534420636172F9
:102A0600642E2E2E00696E697469616C697A617430
:102A1600696F6E20646F6E652E00696E69746961F8
:102A26006C697A6174696F6E206661696C65642190
:102A36000057726974696E6720746F2074657374C9
:102A46002E7478742E2E2E005468697320697320B4
:102A56006120746573742066696C65203A29007478
:102A6600657374696E6720312C20322C20332E005A
:102A76006572726F72206F70656E696E672074651D
:082A860073742E7478740000D3
:00000001FF
